:1000000002006602201E010A32646402AC5153DA17
:10001000DF320002AC57758F01220002AC5D900305
:100020005EE06016201513301F0690056F7410F007
:1000300090056FE0B41003128EB42202A4A0020057
:1000400056000002AAF2000000000002AB06000009
:1000500000000002AB1A439708439702E4900BB9E3
:10006000F0220002000E78FFE4F6D8FD9000007F39
:10007000007E10E4F0A3DFFCDEFA75812B0200BBEA
:10008000027E9FE493A3F8E493A34003F68001F279
:1000900008DFF48029E493A3F85407240CC8C33381
:1000A000C4540F4420C8834004F456800146F6DF50
:1000B000E4800B0102040810204080909728E47E21
:1000C000019360BCA3FF543F30E509541FFEE49345
:1000D000A360010ECF54C025E060A840B8E493A30C
:1000E000FAE493A3F8E493A3C8C582C8CAC583CA37
:1000F000F0A3C8C582C8CAC583CADFE9DEE780BEEF
:10010000900BC17411F0A3E4F0900BC1E0FEA3E0EA
:10011000FFF5828E83E0900B9FF08F828E83A3E0A9
:10012000900BA0F0900BC1A3E0F5828E83A3A3E017
:10013000900BA1F08F828E83A3A3A3E0900BA2F07B
:10014000900BC1A3E02404F582E43EF583E0900B1C
:10015000A3F0EF2405F582E43EF583E0900BA4F0D4
:10016000900BC1A3E02406F582E43EF583E0900BFA
:10017000A5F0EF2407F582E43EF583E0900BA6F0AE
:1001800022EF93FE5407900B7CF0EE131313541FD1
:10019000900B7BF0E0FFA3E0FE75F015A4247FF543
:1001A00082E43417F583E5822FF582E43583F58305
:1001B000E493900B7BF0E0FDEE75F015A424FDF5C3
:1001C00082E43417F583E5822DF582E43583F583E7
:1001D000E493FF900B7CF0EFB40507EDB403037FCD
:1001E000012230160AEFB40306ED70037F0122EFFF
:1001F000B4050AEDB40106300B037F01227F002213
:10020000900BC0E0FFB4041BE4F0A37411F0A3E46E
:10021000F0900BC1E0FCA3E0F5828C83E0900BB87A
:1002200002042DEFB40607E4900BC002042D900BDE
:10023000C0E064096003020429900BBAE07004A3D3
:10024000E0640660030202F1900BC17411F0A3E4B4
:10025000F0900BC1E0FEA3E0FFF5828E83E0B405D1
:1002600010A3E0B4750BE4900BC0F012AC170204BD
:1002700027900BC1E0FEA3E0F5828E83E0B4051A5F
:10028000A3E0B4A515D24D900BC1A3E0F5828E83F7
:10029000A3A3E090056EF0020427900BC1E0FEA33B
:1002A000E0F5828E83E0FDB40513A3E0B45A0EC2DC
:1002B0004DE490056EF0D231D201020427ED6405C1
:1002C0006003020427900B8FF0900B8FE0FF900BE0
:1002D000C1E0FCA3E02FF582E43CF583E0FE740866
:1002E0002FF8A606900B8FE004F0E0B408DB0204C0
:1002F00027C3900BBBE09408900BBAE09400500326
:10030000020427900BB5E09408900BB4E0940050E1
:100310003E900BC17411F0A3E4F0900B8FF0900BA2
:100320008FE0FF900BC1E0FCA3E02FF582E43CF5E9
:1003300083E0FE74082FF8A606900B8FE004F0E02F
:10034000B408DB12AAC8900BB4E4F0A37408F0E47C
:10035000900B90F0900BC17411F0A3E4F0900B8F10
:10036000F0900B8FE0F9C394085040900BB5E02457
:10037000F8FF900BB4E034FFFE900BC1E0FCA3E06B
:1003800029F582E43CF583E0FD74932FF582740631
:100390003EF583EDF0900BB5E004F07006900BB4E1
:1003A000E004F0900B8FE004F080B6900BB4E0FE18
:1003B000A3E0FF900BBAE06E7003A3E06F7056905D
:1003C0000BC0F0D22790066BF012A6897809E624BC
:1003D000FDB4070050589003E475F003A4C58325CD
:1003E000F0C583730203F902040502040002040548
:1003F000020405020405020407129EA7D242802EC1
:10040000E4F5B1800B8009D201D231E4900569F0A6
:100410001295E5801912AAC8900B90E004F0E0C391
:10042000948050030203548005E4900BC0F0539B6A
:10043000F043970422E4900B78F0203B16900AB624
:10044000E0FF900331E0C39F501D20FD1A90035E32
:10045000E06014C3900351E09464900350E0940072
:100460005003020D688015300018C3900351E094CA
:1004700064900350E094005003020D6812ABA40294
:100480000D49900192E090909293FF900ABBE0D3C7
:100490009F4002EFF0900192E09090C493FF900A89
:1004A000B8E0D39F4002EFF0900192E0FC900193FE
:1004B000E0FF900AB8E0F9900ABBE0FA20311F9003
:1004C0000569E0B5041890056BE0B5071190068644
:1004D000E0B5010A900352E06A70030209EFC231ED
:1004E000900569E0B5040790056BE06F6016900514
:1004F00069ECF090056BEFF0D201C202E4FF12AAA2
:10050000B212ABA4900686E0B50107900352E06AF0
:100510006017EC64016010EC6408600BEC64096027
:1005200006ECC394204002D201900686E9F09003C5
:1005300052EAF0EC127755058F00059E0105AE02D8
:1005400005B70305C704062C050640060653070633
:10055000D40806E609079F0A07AF0B07BF0C085C23
:100560000D08D80E08E80F08FE10091411092A1208
:1005700009401309561408722008842108902208A3
:100580009C2308A82408B82608C82D000009EF20DD
:1005900001030209EFC201D202C24A0209EF20019F
:1005A000030209EFC201D20212AC320209EF30019C
:1005B0000312AC0B0207A530010312AC0B900ABB6F
:1005C000E09018850209E530010512A3468053909A
:1005D0000582E020E74C900ABAE090B4FE93FE5406
:1005E00007900B71F0EE131313541FA3F0E0FF24D8
:1005F00095F582E43401F583C083C082E0FE900B60
:1006000071E0FD7401A805088002C333D8FCFD4EDB
:10061000D082D083F074022FF582E43400F583E0B9
:100620004DF0900ABBE09018800209E5300107C246
:1006300001D20212ABF1900ABBE090189E0209E5CC
:1006400030010612AB9E12A024900ABBE090188FD6
:100650000209E530010312A346900582E020E76A13
:10066000900ABAE090B4FE93FE5407900B71F0EE3E
:10067000131313541FA3F0E0FF2483F582E4340521
:10068000F583C083C082E0FE900B71E0FD7401A889
:1006900005088002C333D8FCFD4ED082D083F074AD
:1006A000352FF582E43403F583E04DF0900B72E0D2
:1006B000FF2495F582E43401F583E04DF074022FB8
:1006C000F582E43400F583E04DF0900ABBE0901829
:1006D0009E0209E52001030209EFC201D202C24ACB
:1006E00012A17F0209EF300107C201D202126BEEA4
:1006F000900ABAE0FF90B4FE93F470030209EFEFA2
:1007000093FE5407900B71F0EE131313541FA3F0D4
:10071000E0FF900B71E0FE75F015A4247FF582E4F4
:100720003417F583E5822FF582E43583F583E4936E
:10073000900B73F0EE75F015A424FDF582E43417E8
:10074000F583E5822FF582E43583F583E493900BFE
:1007500074F0900ABBE090188593FF900579E4F05F
:10076000A3EFF0900582E0900B7420E71EE0FF906D
:100770000B73E0FDE4FB125D22900B74E0FF900B25
:1007800073E0FD7B0112A4E80209EFE0900B731205
:10079000A4E3900B74E0900B7312586E0209EF30D3
:1007A000010312AB42900ABBE09018A80209E530A1
:1007B000010312AC0B900ABBE09018940209E530DB
:1007C000010312AB9E900ABAE0FF90B4FE93F4705E
:1007D00003020852EF93FE5407900B71F0EE1313CF
:1007E00013541FA3F0E0FF900B71E0FE75F015A409
:1007F000247FF582E43417F583E5822FF582E43512
:1008000083F583E493900B73F0EE75F015A424FD4B
:10081000F582E43417F583E5822FF582E43583F51C
:1008200083E493900B74F0900582E0900B7420E7C2
:1008300015E0900B73126191900B74E0FF900B73B5
:10084000E0FD7B018009E0FF900B73E0FDE4FB120B
:10085000A4E8900ABBE090187B0209E5300109C2C8
:1008600001D202C24A12A07D900ABBE09018990200
:1008700009E52001030209EFC201E4FF122960D259
:10088000020209EF2001030209EFC2017F01802269
:100890002001030209EFC2017F028016200103023A
:1008A00009EFC2017F03800A2001030209EFC201A0
:1008B0007F041229600209EF2001030209EFC2013F
:1008C000D20212AB480209EF300107C201D2021274
:1008D00083411293EB0209EF30010312AB42900AFD
:1008E000BBE09018A30209E5300109C201D202C29F
:1008F0004A12A568900ABBE09018B70209E53001DA
:1009000009C201D202C24A12AC6F900ABBE0901831
:10091000B20209E5300109C201D202C24A12AC3268
:10092000900ABBE09018B20209E5300109C201D279
:1009300002C24A12AC3A900ABBE09018A80209E53C
:10094000300109C201D202C24A12AC42900ABBE095
:100950009018A80209E530010912A346900AE0E0C8
:1009600004F0900582E020E775900AE0E0C3941E51
:100970004002E4F0900ABAE090B4FE93FE5407906F
:100980000B71F0EE131313541FA3F0E0FF2483F553
:1009900082E43405F583C083C082E0FE900B71E0F1
:1009A000FD7401A805088002C333D8FCFD4ED08237
:1009B000D083F074352FF582E43403F583E04DF0F5
:1009C000900B72E0FF2495F582E43401F583E04D4D
:1009D000F074022FF582E43400F583E04DF0900AC4
:1009E000BBE090189E93FF900579E4F0A3EFF02010
:1009F0000203020D68900569E024E07003020D51C6
:100A000024FA7003020C1A2425B414004003020DCA
:100A100068900A1F75F003A4C58325F0C58373028F
:100A20000A5B020A87020AA5020AC3020AEF020B46
:100A30001B020B39020B65020B68020B86020BB21C
:100A4000020BD0020BEE020C61020C8D020CAB0209
:100A50000CCA020CEB020D07020D23C3900351E0F8
:100A60009428900350E094005003020D6890058193
:100A7000E004F0E0D3940940037409F0900581E0AC
:100A8000FF1253B1020D49900579E0FEA3E0FFC3C8
:100A9000900351E09F900350E09E5003020D6812B6
:100AA00063BA020D49900579E0FEA3E0FFC390030D
:100AB00051E09F900350E09E5003020D681286564D
:100AC000020D49900656E0D3940F4005E4F0124C15
:100AD000BC900579E0FEA3E0FFC3900351E09F9036
:100AE0000350E09E5003020D68125AC8020D49904F
:100AF0000656E0D3940A4005E4F0124CBC90057908
:100B0000E0FEA3E0FFC3900351E09F900350E09EFE
:100B10005003020D6812927C020D49900579E0FEA7
:100B2000A3E0FFC3900351E09F900350E09E500369
:100B3000020D681246DC020D49900656E0D3940F70
:100B40004005E4F0124CBC900579E0FEA3E0FFC341
:100B5000900351E09F900350E09E5003020D6812F5
:100B60005AC8020D4902A45C900579E0FEA3E0FF9B
:100B7000C3900351E09F900350E09E5003020D6824
:100B80001267E6020D49900656E0D3940F4005E443
:100B9000F0124CBC900579E0FEA3E0FFC390035136
:100BA000E09F900350E09E5003020D68128B2F02CD
:100BB0000D49900579E0FEA3E0FFC3900351E09F4B
:100BC000900350E09E5003020D68120D69020D491A
:100BD000900579E0FEA3E0FFC3900351E09F9003EE
:100BE00050E09E5003020D68124CBC020D49900665
:100BF00056E0D394014005E4F0124CBC900579E036
:100C0000FEA3E0FFC3900351E09F900350E09E508D
:100C100003020D68125AC8020D49900656E0D3949B
:100C20000A4005E4F0124CBCC3900351E0940A90D2
:100C30000350E094005003020D689001937407F094
:100C4000900AB87404F0900B65E0700F12ABA4909A
:100C50000AC5E0900192F0D231C24B128B2F020DE7
:100C600049900656E0D3940F4005E4F0124CBC9036
:100C70000579E0FEA3E0FFC3900351E09F9003508D
:100C8000E09E5003020D68122D8B020D49900579EC
:100C9000E0FEA3E0FFC3900351E09F900350E09E6D
:100CA0005003020D68124F66020D49900579E0FE6F
:100CB000A3E0FFC3900351E09F900350E09E5003D8
:100CC000020D68E4F0A3F0028227900579E0FEA30C
:100CD000E0FFC3900351E09F900350E09E50030259
:100CE0000D68E4F0A3F07F090253B1900579E0FEAE
:100CF000A3E0FFC3900351E09F900350E09E406843
:100D0000E4F0A3F0028949900579E0FEA3E0FFC377
:100D1000900351E09F900350E09E404CE4F0A3F01C
:100D2000027484900656E0D3940F4005E4F0124C10
:100D3000BC900579E0FEA3E0FFC3900351E09F90D3
:100D40000350E09E40221278F3E4900350F0A3F0A9
:100D500022C3900351E09464900350E09400400853
:100D6000E4F0A3F0FF12296022E4900B7FF09001E1
:100D700093E064076003020ED27FC012A38C900B35
:100D80007FEFF0E4900B79F0900B7FE0FF75F003BC
:100D9000A424BFF582E5F03413F583E49390019425
:100DA000F075F003EFA424C0F582E5F03413F58369
:100DB000E493900001F0900B7F129B0E900B7FE06C
:100DC0002405F0E0C394C04004E02440F0E4900B1C
:100DD0007AF0900B7AE0FFC394064003020EC290B3
:100DE0000B79E075F006A4FEEF2E900B7BF0E090FF
:100DF000B57C93F47003020EB9900B79E0FFA3E089
:100E0000FE75F015A4247FF582E43417F583E5829E
:100E10002FF582E43583F583E493FD900B7DF0EEAE
:100E200075F015A424FDF582E43417F583E5822FCF
:100E3000F582E43583F583E493FF900B7EF0120195
:100E4000D7EF7075900194E0FF900B7DE0FE75F098
:100E500012A424ACF582E5F03401F583C083C0828E
:100E6000900B7EE0FDD082D08375F003127749EFBE
:100E7000F0900001E0FF75F012EEA424ADF582E5DC
:100E8000F03401F58375F003ED127749EFF0900A25
:100E9000C6E0FF900B7DE075F012A424AEF582E56C
:100EA000F03401F583C083C082900B7EE0D082D005
:100EB0008375F003127749EFF0900B7AE004F002AB
:100EC0000DD2900B79E004F0E0C394155003020DAD
:100ED00088227F6012A38C900B7FEFF0E4900B7957
:100EE000F0900ABDE0FF75F0F8A42400F582E5F06B
:100EF00034B8F583EF2583F583C083C082900569FC
:100F0000E0FFD082D08375F015127749C083C0828C
:100F1000900193E0FED082D08375F003127749E40C
:100F200093900194F0900ABDE0FD75F0F8A42401BF
:100F3000F582E5F034B8F583ED2583F58375F0157A
:100F4000EF12774975F003EE127749E493900001B0
:100F5000F0900ABDE0FF75F0F8A42402F582E5F0F8
:100F600034B8F583EF2583F583C083C0829005698B
:100F7000E0D082D08375F015127749C083C082908B
:100F80000193E0D082D08375F003127749E4939007
:100F90000AC6F0900B7FE09011E393FF7E007DFF87
:100FA0007C00129B32129B23900B7FE0240AF0E01E
:100FB000C394604004E024A0F0E4900B7AF0900B1E
:100FC0007AE0FFC3940640030210C0900B79E075ED
:100FD000F006A4FEEF2E900B7BF0E0FF90B57C9323
:100FE000F470030210B7EF93FE5407900B7EF0EEFF
:100FF000131313541F900B7DF0E0FFA3E0FE75F078
:1010000015A4247FF582E43417F583E5822FF58259
:10101000E43583F583E493900B7DF0E0FDEE75F00D
:1010200015A424FDF582E43417F583E5822DF582BD
:10103000E43583F583E493FF900B7EF01201D7EF44
:101040007075900194E0FF900B7DE0FE75F012A4A6
:1010500024ACF582E5F03401F583C083C082900BA7
:101060007EE0FDD082D08375F003127749EFF090D7
:101070000001E0FF75F012EEA424ADF582E5F03436
:1010800001F58375F003ED127749EFF0900AC6E0A1
:10109000FF900B7DE075F012A424AEF582E5F034EC
:1010A00001F583C083C082900B7EE0D082D083752F
:1010B000F003127749EFF0900B7AE004F0020FBED4
:1010C000900B79E004F0E0C394155003020EE12286
:1010D000E4900BC0F0900BA1E0FF7008900BA3E030
:1010E0007002800AEF7011900BA3E0B4010A539BC9
:1010F000F04397044397022212005622000000009A
:10110000000000000000000000030B151E0000009E
:101110000000FF000000FF000000FFFFFF00FF00D5
:10112000FF00FFFFFFFFFF0000003BFFFFFFFFFF8F
:10113000FFFFFFFF423A33433C44FFFFFFFF3941CB
:10114000494A322B4B344CFF312A232C2D51525318
:10115000544529221B24595A5B5C4DFF211A131C4C
:1011600061626BFF64FF19120B1415696A7C556C80
:10117000110A03040D718182656D09010205FF7971
:101180007AFF72FF016DFFFFFF09026582FF110AFE
:10119000557C811912646C6B211A4D5C5B292245C8
:1011A0005453312A4B4CFF39324443FF41423C33C4
:1011B000FF333A4443FF3A42443CFF42433C33FF4F
:1011C0004344333AFF3C42FFFFFF3343FFFFFF3A04
:1011D00044FFFFFF423CFFFFFF3BFFFFFFFF3BFFE2
:1011E000FFFFFF16181B1E2124272A2D3135393DFC
:1011F0004145494D5155595E63686D72777C8186D2
:101200008C92989EA4AAB0B6BCC2C8CED5DCE3EA44
:10121000F1F8FFFFF8F1EAE3DCD5CEC8C2BCB6B006
:10122000AAA49E98928C86817C77726D68635E59C1
:1012300055514D4945413D3935312D2A2724211E2F
:101240001B1816000102030405060708090A0C0E04
:1012500010121416181B1E2124272A2D3135393D52
:101260004145494D5155595E63686D72777C818661
:101270008C92989EA4AAB0B6BCC2C8CED5DCE3EAD4
:10128000F1F8FFFFF8F1EAE3DCD5CEC8C2BCB6B096
:10129000AAA49E98928C86817C77726D68635E5951
:1012A00055514D4945413D3935312D2A2724211EBF
:1012B0001B18161412100E0C0A0908070605040361
:1012C000020100010101BFBFBF060606BEBEBE0B84
:1012D0000B0BBCBCBC101010B9B9B9151515B4B4C2
:1012E000B41A1A1AAFAFAF1F1F1FAAAAAA24242428
:1012F000A5A5A5292929A0A0A02E2E2E9B9B9B3316
:1013000033339696963838389191913D3D3D8C8C8B
:101310008C4242428787874747478282824C4C4CA7
:101320007D7D7D5151517878785656567474745A33
:101330005A5A7070705F5F5F6C6C6C636363676751
:10134000670000005454540707074D4D4D0E0E0E14
:101350004646461515153F3F3F1C1C1C38383823A0
:1013600023233131312A2A2A2A2A2A3131312323CF
:10137000233838381C1C1C3F3F3F15151546464680
:101380000E0E0E4D4D4D0707075454545F5F5F5BC3
:101390005B5B5B5B5B5F5F5F5454540000004D4DD3
:1013A0004D0707074646460E0E0E3F3F3F151515E3
:1013B0003838381C1C1C3131312323232A2A2AFFB8
:1013C0000100FF0300FF0500FF0700FF0A00FF0EFA
:1013D00000FF1200FF1600FF1A00FF2000FF26008A
:1013E000FF2C00FF3200FF3900FF4100FF4900FFE2
:1013F0005100FF5900FF6300FF6D00FF7700FF8180
:1014000000FF8C00FF9800FFA400FFB000FFBC00AD
:10141000FFC800FFD500FFE300FFF100FFFF00F869
:10142000FF00EAFF00DCFF00CEFF00C2FF00B6FFB6
:1014300000AAFF009EFF0092FF0086FF007CFF00D5
:1014400072FF0068FF005EFF0055FF004DFF004582
:10145000FF003DFF0035FF002FFF0029FF0023FFA5
:10146000001DFF0018FF0014FF0010FF000CFF001C
:1014700008FF0006FF0004FF0002FF0000FF00005D
:10148000FF0100FF0300FF0500FF0700FF0A00FF48
:101490000E00FF1200FF1600FF1A00FF2000FF26BB
:1014A00000FF2C00FF3200FF3900FF4100FF490020
:1014B000FF5100FF5900FF6300FF6D00FF7700FF41
:1014C0008100FF8C00FF9800FFA400FFB000FFBC6C
:1014D00000FFC800FFD500FFE300FFF100FFFF00A1
:1014E000F8FF00EAFF00DCFF00CEFF00C2FF00B6FD
:1014F000FF00AAFF009EFF0092FF0086FF007CFF16
:101500000072FF0068FF005EFF0055FF004DFF0006
:1015100045FF003DFF0035FF002FFF0029FF00239E
:10152000FF001DFF0018FF0014FF0010FF000CFF5C
:101530000008FF0006FF0004FF0002FF0000FF019B
:1015400000FF0300FF0500FF0700FF0A00FF0E0079
:10155000FF1200FF1600FF1A00FF2000FF2600FF09
:101560002C00FF3200FF3900FF4100FF4900FF510E
:1015700000FF5900FF6300FF6D00FF7700FF81004F
:10158000FF8C00FF9800FFA400FFB000FFBC00FF2D
:10159000C800FFD500FFE300FFF100FFFF00FFFFE1
:1015A00000F8FF00EAFF00DCFF00CEFF00C2FF00F2
:1015B000B6FF00AAFF009EFF0092FF0086FF007C9E
:1015C000FF0072FF0068FF005EFF0055FF004DFF47
:1015D0000045FF003DFF0035FF002FFF0029FF0001
:1015E00023FF001DFF0018FF0014FF0010FF000C78
:1015F000FF0008FF0006FF0004FF0002FF000000DC
:1016000005FF0011FF001DFF0030FF0041FF0055E6
:10161000FF0069FF007FFF0089FF0094FF00A1FF2A
:1016200000ABFF00B6FF00C0FF00CAFF00D3FF0001
:10163000DCFF00E5FF00EDFF00F3FF00FAFF00FF15
:10164000FF00FFFA00FFF600FFEE00FFE700FFDFFC
:1016500000FFD600FFCD00FFC300FFBA00FFAF00C0
:10166000FFA500FF9900FF8F00FF8200FF7200FFBF
:101670005D00FF4900FF3600FF2500FF1500FF0851
:1016800000FF000BFF0016FF0024FF0034FF0046A0
:10169000FF0057FF006AFF007EFF0088FF0090FFF9
:1016A0000098FF009FFF00A8FF00B0FF00B7FF00F9
:1016B000C0FF00C6FF00CEFF00D4FF00DCFF00E14A
:1016C000FF00E7FF00EDFF00F3FF00F7FF00FBFF67
:1016D00000FFFF00FFF900FFF200FFEC00FFE10058
:1016E000FFD700FFCE00FFC300FFB700FFAA00FF37
:1016F0009F00FF9100FF8400FF6900FF4400FF226C
:1017000000FF0A00FF0005FF0011FF001EFF00326E
:10171000FF0045FF005BFF0071FF0083FF008EFFAD
:10172000009BFF00A5FF00B1FF00BDFF00C7FF0049
:10173000D1FF00DBFF00E5FF00ECFF00F3FF00FA44
:10174000FF00FFFA00FFF300FFED00FFE400FFDC05
:1017500000FFD100FFC800FFBD00FFB200FFA800DE
:10176000FF9E00FF8F00FF8300FF6F00FF5A00FF06
:101770004500FF3200FF1F00FF1000FF0500FF00C3
:101780001602030405060708090A0B0C0D0E0F10BC
:1017900011121314000102030405060708090A0BBD
:1017A0000C0D0E0F10111213140001020304050694
:1017B0000708090A0B0C0D0E0F101112131400016B
:1017C00002030405060708090A0B0C0D0E0F101181
:1017D000121314000B0102030405060708090A0C82
:1017E0000D0E0F1011121314000102030405060759
:1017F00008090A0B0C0D0E0F101112131400000033
:1018000000000000000000000000000000000000D8
:1018100000000101010101010101010101010101BA
:10182000010101010101010202020202020202029F
:101830000202020202020202020202020303030384
:101840000303030303030303030303030303030368
:101850000304040404040404040404040404040449
:10186000040404040404050505050505050505052E
:101870000505050505050505050505554637280F28
:101880006E5F5032147364553C1E55463728192834
:101890001E0F05011E18120C06BEA08264466E5F64
:1018A0005032145546372D2355463728197D6E5D25
:1018B00048333C2D1E150C554637281900000000F2
:1018C0000000000000000000000000000000000018
:1018D0000000000000000000000000000000000008
:1018E00000000000000000000000000000000000F8
:1018F00000000000000000000000000000000000E8
:1019000000000000000000000000000000000000D7
:1019100000000000000000000000000000000000C7
:1019200000000000000000000000000000000000B7
:1019300000000000000000000000FF0000000000A8
:101940000000000000000000000000000000000097
:101950000000000000000000000000000000000087
:10196000000000000000FF00000000000000000078
:1019700000000000000000000000FFFFFF0000006A
:101980000000000000000000000000000000000057
:1019900000000000000000000000FF000000000048
:1019A00000000000000000000000000000FF00FF39
:1019B000FF00000000000000000000000000000028
:1019C0000000000000000000000000000000000017
:1019D0000000000000000000000000000000000007
:1019E00000000000000000000000000000000000F7
:1019F00000000000000000000000000000000000E7
:101A000000000000000000000000000000000000D6
:101A100000000000000000000000000000000000C6
:101A200000000000000000000000000000000000B6
:101A300000000000000000000000000000000000A6
:101A40000000000000000000000000000000000096
:101A50000000000000000000000000000000000086
:101A60000000000000000000000000000000000076
:101A70000000000000000000000000000000000066
:101A80000000000000000000000000000000000056
:101A90000000000000000000000000000000000046
:101AA0000000000000000000000000000000000036
:101AB0000000000000000000000000000000000026
:101AC0000000000000000000000000000000000016
:101AD0000000000000000000000000000000000006
:101AE00000000000000000000000000000000000F6
:101AF00000000000000000000000000000000000E6
:101B000000000000000000000000000000000000D5
:101B100000000000000000000000000000000000C5
:101B200000000000000000000000000000000000B5
:101B300000000000FFFFFF000000000000000000A8
:101B400000FF000000000000FFFFFFFFFF0000009B
:101B500000000000000000FFFF000000FFFFFFFF8B
:101B6000FF0000000000000000000000FFFF000078
:101B70000000FFFFFF00FF00000000000000000069
:101B8000000000000000FF0000000000FF00000057
:101B90000000000000000000000000FF00FF000047
:101BA000FF00000000000000000000000000000036
:101BB0000000000000000000000000000000000025
:101BC0000000000000000000000000000000000015
:101BD0000000000000000000000000000000000005
:101BE00000000000000000000000000000000000F5
:101BF00000000000000000000000000000000000E5
:101C000000000000000000000000000000000000D4
:101C100000000000000000000000000000000000C4
:101C200000000000000000000000000000000000B4
:101C300000000000000000000000000000000000A4
:101C40000000000000000000000000000000000094
:101C50000000000000000000000000000000000084
:101C60000000000000000000000000000000000074
:101C70000000000000000000000000000000000064
:101C80000000000000000000000000000000000054
:101C90000000000000000000000000000000000044
:101CA0000000000000000000000000000000000034
:101CB0000000000000000000000000000000000024
:101CC0000000FFFFFFFFFFFFFF000000000000001B
:101CD00000000000000000FFFFFFFFFF0000000009
:101CE000000000000000000000000000FFFFFFFFF8
:101CF000FF000000000000000000000000000000E5
:101D0000FF000000FFFF00000000000000000000D6
:101D10000000000000FF00000000000000000000C4
:101D200000000000000000000000000000000000B3
:101D300000000000000000000000000000000000A3
:101D40000000000000000000000000000000000093
:101D50000000000000000000000000000000000083
:101D60000000000000000000000000000000000073
:101D70000000000000000000000000000000000063
:101D80000000000000000000000000000000000053
:101D90000000000000000000000000000000000043
:101DA0000000000000000000000000000000000033
:101DB0000000000000000000000000000000000023
:101DC0000000000000000000000000000000000013
:101DD0000000000000000000000000000000000003
:101DE00000000000000000000000000000000000F3
:101DF00000000000000000000000000000000000E3
:101E000000000000000000000000000000000000D2
:101E100000000000000000000000000000000000C2
:101E200000000000000000000000000000000000B2
:101E3000000000000000000000000000FFFFFFFFA6
:101E4000FFFFFF0000000000000000000000000095
:101E500000FFFFFFFF000000000000000000000086
:101E6000000000000000FFFFFFFF00000000000076
:101E70000000000000000000000000000000000062
:101E80000000000000000000000000000000000052
:101E90000000000000000000000000000000000042
:101EA0000000000000000000000000000000000032
:101EB0000000000000000000000000000000000022
:101EC0000000000000000000000000000000000012
:101ED0000000000000000000000000000000000002
:101EE00000000000000000000000000000000000F2
:101EF00000000000000000000000000000000000E2
:101F000000000000000000000000000000000000D1
:101F100000000000000000000000000000000000C1
:101F200000000000000000000000000000000000B1
:101F300000000000000000000000000000000000A1
:101F40000000000000000000000000000000000091
:101F50000000000000000000000000000000000081
:101F60000000000000000000000000000000000071
:101F70000000000000000000000000000000000061
:101F80000000000000000000000000000000000051
:101F90000000000000000000000000000000000041
:101FA0000000000000000000000000000000000031
:101FB0000000000000000000000000000000000021
:101FC000000000000000000000000000FF00FF0013
:101FD0000000000000000000000000000000000001
:101FE000FFFFFF00000000000000000000000000F4
:101FF00000000000FF0000000000000000000000E2
:1020000000000000FF00000000FF00FF00000000D3
:102010000000000000000000FFFFFF000000C0E023
:10202000C0F0C083C082C0D075D000C000C001C065
:1020300002C003C004C005C006C007C2CF204C03C5
:1020400002231712ABB05380E353B084C28F75C024
:102050000012A689900355E004F0E0C394124004F6
:10206000E4F0C24C900355E0FF75F00384FEEF7579
:10207000F00384AFF075C30075F003EEA424ACF553
:1020800082E5F03401F583E5822FF582E43583F5AE
:1020900083E0F5CE75C40075F003EEA424BEF5828E
:1020A000E5F03401F583E5822FF582E43583F5838D
:1020B000E0F5C175C50075F003EEA424D0F582E506
:1020C000F03401F583E5822FF582E43583F583E072
:1020D000F5C290FFEDE4F075F003EEA424E2F58282
:1020E000E5F03401F583E5822FF582E43583F5834D
:1020F000E090FFD5F090FFECE4F075F003EEA4243F
:10210000F4F582E5F03401F583E5822FF582E435BC
:1021100083F583E090FFD4F090FFEBE4F075F003DB
:10212000EEA42406F582E5F03402F583E5822FF56E
:1021300082E43583F583E090FFD3F090FFEAE4F08A
:1021400075F003EEA42418F582E5F03402F583E57A
:10215000822FF582E43583F583E090FFD2F090FF83
:10216000E9E4F075F003EEA4242AF582E5F03402E8
:10217000F583E5822FF582E43583F583E090FFD186
:10218000F090FFE8E4F075F003EEA4243CF582E55E
:10219000F03402F583E5822FF582E43583F583E0A0
:1021A00090FFD0F090FFF3E4F075F003EEA4244E1E
:1021B000F582E5F03402F583E5822FF582E435837C
:1021C000F583E090FFDBF090FFF2E4F075F003EEB2
:1021D000A42460F582E5F03402F583E5822FF582D0
:1021E000E43583F583E090FFDAF090FFF1E4F075D9
:1021F000F003EEA42472F582E5F03402F583E58263
:102200002FF582E43583F583E090FFD9F090FFF05D
:10221000E4F075F003EEA42484F582E5F03402F5D1
:1022200083E5822FF582E43583F583E090FFD8F0D3
:1022300090FFEFE4F075F003EEA42496F582E5F04C
:102240003402F583E5822FF582E43583F583E0904F
:10225000FFD7F090FFEEE4F075F003EEA424A8F5AC
:1022600082E5F03402F583E5822FF582E43583F5CB
:1022700083E090FFD6F090FFF9E4F075F003EEA450
:1022800024BAF582E5F03402F583E5822FF582E485
:102290003583F583E090FFE1F090FFF8E4F075F00E
:1022A00003EEA424CCF582E5F03402F583E5822F19
:1022B000F582E43583F583E090FFE0F0303E0302E1
:1022C000244F30270302244F900355E0FF90A21CB7
:1022D00093FE7009EF90A22E9342808034EEB404F6
:1022E0000C900355E090A22E9342B08024900355A9
:1022F000E0FF90A21C93FEB40509EF90A22E93423A
:1023000088800EEEB4060A900355E090A22E934208
:10231000C012A1CE02244FD24C12ABC15380E35362
:10232000B084C28F75C00053EACF53E2CF53EBC0E5
:1023300053E3C053ECC053E4C053EEF853E6F81235
:10234000A68943E23043903043E33F43983F43E460
:102350003F43A03F43E6074388075380E353B084DD
:10236000C28F75C000900B8EE4F0900B8EE0FFC31F
:1023700094114003022437EF90A24093FFB4010D63
:10238000900B8EE090A25593F452908037EFB402F8
:102390000D900B8EE090A25593F452988026900BEE
:1023A0008EE0FF90A24093FEB4030AEF90A25593F3
:1023B000F452A0800FEEB4050B900B8EE090A25566
:1023C00093F4528843D90F43EE187F017E0012A385
:1023D000E8E58825E05430FFE5F8540F4F44C090FD
:1023E0000B8DF07F027E0012A3E8E58825E05430D3
:1023F000FFE5F8540F4F44C0FF53D9F053EEE79078
:102400000B8DE0FEB5070FA3E0246CF582E43406E3
:10241000F583EEF0D22043E23043903043E33F4374
:10242000983F43E43F43A03F43E607438807900BB0
:102430008EE004F002236A53EACF53E2CF53EBC09D
:1024400053E3C053ECC053E4C053EEF853E6F890A6
:102450000351E004F07006900350E004F09006563B
:10246000E004F0900599E004F0900353E004F0904C
:10247000056AE004F030271090066BE004F0E0D32A
:1024800094FA4004E4F0C227900327E004F07006B9
:10249000900326E004F0900353E0D394024061E4FB
:1024A000F0900633E004F07006900632E004F0305D
:1024B000262390032EE06003E014F090032EE070DA
:1024C0003F90032DE0A3F0900328E0C3947F5030A9
:1024D000E004F0802B90032EE06003E014F0900302
:1024E0002EE0701C90032DE0A3F0A3E07002A3E0A7
:1024F000600E900330E024FFF090032FE034FFF0F3
:102500009001ABE0600214F0D007D006D005D004F3
:10251000D003D002D001D000D0D0D082D083D0F070
:10252000D0E032900BA4E0703D900BA3E0703790A8
:102530000BA1E07031A3E06402702B900BA5E0FFCB
:102540007024539BF0EF429B900BC17411F0A37465
:1025500008F0900BB8E0FF900BC1E0FAA3E0F58221
:102560008A83EF022640900BA1E0FF64056003021E
:102570002644A3E064036003022644A3E0640160F0
:1025800003022644539BF0900BA5E0429B900BC1A5
:102590007411F0A37408F0900BC1E475F001127689
:1025A000FC85F082F5837405F0900BC1E475F001B1
:1025B0001276FC85F082F5837401F09057E5E49380
:1025C000FE900BC1E475F0011276FC85F082F58374
:1025D000EEF09057E6E493FE900BC1E475F0011223
:1025E00076FC85F082F583EEF09057E7E493FE9059
:1025F0000BC1E475F0011276FC85F082F583EEF0F4
:102600009057E8E493FE900BC1E475F0011276FC5C
:1026100085F082F583EEF09057E9E493FE900BC1CC
:10262000E475F0011276FC85F082F583EEF09057A8
:10263000EAE493FE900BC1E0FAA3E0F5828A83EE10
:10264000F0022958EF6406600302295C900BA2E0B7
:102650006403600302295CA3E06401600302295C57
:10266000539BF0900BA5E0429B900BC17411F0A31B
:102670007408F0900BC1E475F0011276FC85F082CD
:10268000F5837406F07809E6247DB4070040030260
:1026900029589026A075F003A4C58325F0C583733F
:1026A0000226B50227310227C20228140228660238
:1026B00028B80229097809E6FF900BC1E475F001FA
:1026C0001276FC85F082F583EFF0780AE6FF900B36
:1026D000C1E475F0011276FC85F082F583EFF078A5
:1026E0000BE6FF900BC1E475F0011276FC85F082D9
:1026F000F583EFF0D250900BC07401F0780AE6FE3B
:1027000008E6FBEBFF900BBCEEF0A3EFF0900BB1F3
:10271000E4F0A374FEF0E4FD900BC1E475F0011247
:1027200076FC85F082F583E4F00DEDB404EA02292D
:10273000587809E6FF900BC1E475F0011276FC852C
:10274000F082F583EFF0780AE6FF900BC1E475F0B4
:10275000011276FC85F082F583EFF0780BE6FF90AE
:102760000BC1E475F0011276FC85F082F583EFF081
:10277000780AE6FE08E6FDEDFF900BBCEEF0A3EF55
:10278000F0900BB17404F0A3E4F07809E6FF900B2D
:10279000C1E475F0011276FC85F082F583EFF090CC
:1027A0000BC07401F0C250E4FD900BC1E475F00160
:1027B0001276FC85F082F583E4F00DEDB404EA02B4
:1027C0002958780AE6FE08E6FDEDFF900BBCEEF016
:1027D000A3EFF0900BB17404F0A3E4F07809E6FFE6
:1027E000900BC1E475F0011276FC85F082F583EF61
:1027F000F0900BC07401F0C250E4FD900BC1E47581
:10280000F0011276FC85F082F583E4F00DEDB4065C
:10281000EA022958780AE6FE08E6FDEDFF900BBCB7
:10282000EEF0A3EFF0900BB17404F0A3E4F078099C
:10283000E6FF900BC1E475F0011276FC85F082F59D
:1028400083EFF0900BC07401F0C250E4FD900BC117
:10285000E475F0011276FC85F082F583E4F00DED6D
:10286000B406EA022958780AE6FE08E6FDEDFF9074
:102870000BBCEEF0A3EFF0900BB17404F0A3E4F006
:102880007809E6FF900BC1E475F0011276FC85F043
:1028900082F583EFF0900BC07401F0C250E4FD901C
:1028A0000BC1E475F0011276FC85F082F583E4F04B
:1028B0000DEDB406EA022958780AE6FE08E6FDEDB9
:1028C000FF900BBCEEF0A3EFF0900BB17404F0A3FB
:1028D000E4F07809E6FF900BC1E475F0011276FC94
:1028E00085F082F583EFF0900BC07401F0C250E4E4
:1028F000FD900BC1E475F0011276FC85F082F58342
:10290000E4F00DEDB406EA804F780AE6FE08E6FD35
:10291000EDFF900BBCEEF0A3EFF0900BB17404F060
:10292000A3E4F07809E6FF900BC1E475F00112769C
:10293000FC85F082F583EFF0900BC07401F0C2507B
:10294000E4FD900BC1E475F0011276FC85F082F590
:1029500083E4F00DEDB406EA439704221250F1220D
:10296000900B79EFF0C205E4A3F0E4900B7BF090BC
:102970000B7BE0FFC394154003022D7B900B79E0A5
:10298000FE7069900B7BE0FD900B7AE0FC75F01512
:10299000A42400F582E5F034BCF583E5822DF582B0
:1029A000E43583F583E493FB900B7EE4F0A3EBF036
:1029B00075F015ECA4247EF582E5F034BCF583E5D2
:1029C000822DF582E43583F583E493FD900B80E45A
:1029D000F0A3EDF0900B7AE075F015A424FCF582DD
:1029E000E5F034BCF583E5822F022AC9EE6401705C
:1029F00069900B7BE0FF900B7AE0FE75F015A42444
:102A00007AF582E5F034BDF583E5822FF582E43571
:102A100083F583E493FD900B7EE4F0A3EDF075F075
:102A200015EEA424F8F582E5F034BDF583E5822F98
:102A3000F582E43583F583E493FF900B80E4F0A303
:102A4000EFF0900B7BE0FF900B7AE075F015A4247B
:102A500076F582E5F034BE022BBC900B79E0FF6482
:102A600002707B900B7BE0FE900B7AE0FD75F01519
:102A7000A424F4F582E5F034BEF583E5822EF582D8
:102A8000E43583F583E493FB900B7EE4F0A3EBF055
:102A900075F015EDA42472F582E5F034BFF583E5F9
:102AA000822EF582E43583F583E493FD900B80E478
:102AB000F0A3EDF0900B7AE075F015A424F0F58208
:102AC000E5F034BFF583E5822EF582E43583F583A6
:102AD000E493FD900B82E4F0A3EDF0022BD3EF64BE
:102AE000037068900B7BE0FF900B7AE0FE75F015A9
:102AF000A4246EF582E5F034C0F583E5822FF582DB
:102B0000E43583F583E493FD900B7EE4F0A3EDF0D0
:102B100075F015EEA424ECF582E5F034C0F583E5FC
:102B2000822FF582E43583F583E493FF900B80E4F4
:102B3000F0A3EFF0900B7BE0FF900B7AE075F015BF
:102B4000A4246AF582E5F034C18071900B79E064C9
:102B5000046003022BD3900B7BE0FF900B7AE0FE26
:102B600075F015A424E8F582E5F034C1F583E5821B
:102B70002FF582E43583F583E493FD900B7EE4F03A
:102B8000A3EDF075F015EEA42466F582E5F034C2ED
:102B9000F583E5822FF582E43583F583E493FF9096
:102BA0000B80E4F0A3EFF0900B7BE0FF900B7AE05A
:102BB00075F015A424E4F582E5F034C2F583E582CE
:102BC0002FF582E43583F583E493FF900B82E4F0E4
:102BD000A3EFF0900AB8E090110893FB900B82E00D
:102BE000FCA3E0FDAF037E0012767F7C007D1E1209
:102BF0007691900B82EEF0A3EFF0900B80E0FCA3B7
:102C0000E0FDAF037E0012767F7C007D1E12769180
:102C1000900B80EEF0A3EFF0900AB8E090110893CB
:102C2000FF7E00900B7EE0FCA3E0FD12767F7C002F
:102C30007D1E127691900B7EEEF0A3EFF0900B7B51
:102C4000E0FF900B7AE0FE75F015A4247FF582E496
:102C50003417F583E5822FF582E43583F583E49319
:102C6000FCC394154003022D72EE75F015A424FDEB
:102C7000F582E43417F583E5822FF582E43583F598
:102C800083E493FF900B84F0AD041201D7EF7071D1
:102C9000900B7EA3E0FF75F012ECA424ACF582E566
:102CA000F03401F583C083C082900B84E0FED082B3
:102CB000D08375F003127749EFF0900B80A3E0FF0B
:102CC00075F012ECA424ADF582E5F03401F58375BE
:102CD000F003EE127749EFF0900B82A3E0FF75F05E
:102CE00012ECA424AEF582E5F03401F583C083C074
:102CF00082900B84E0D082D08375F003127749EF85
:102D0000F0900B7EA3E0FF75F012ECA424EFF582A7
:102D1000E5F03403F583C083C082900B84E0FED0DD
:102D200082D08375F003127749EFF0900B80A3E017
:102D3000FF75F012ECA424F0F582E5F03403F5837E
:102D400075F003EE127749EFF0900B82A3E0FF7568
:102D5000F012ECA424F1F582E5F03403F583C0838E
:102D6000C082900B84E0D082D08375F00312774943
:102D7000EFF0900B7BE004F002296F900B7AE004F7
:102D8000F0E0C39406500302296A22900193E064A4
:102D9000076003022F027FC012A38C75F003EFA41B
:102DA00024BFF582E5F03413F583E493900194F0A9
:102DB00075F003EFA424C0F582E5F03413F583E445
:102DC00093900001F075F003EF129B12E4900B7AE0
:102DD000F0900B7AE0FFC394064003022EE19006C8
:102DE0008FE075F006A4FEEF2E900B7BF0E090B51F
:102DF0007C93F47003022ED890068FE0FF900B7A3C
:102E0000E0FE75F015A4247FF582E43417F583E520
:102E1000822FF582E43583F583E493FD900B7DF0FA
:102E2000EE75F015A424FDF582E43417F583E582F0
:102E30002FF582E43583F583E493FF900B7EF01247
:102E400001D7EF6003022ED8900194E0FF900B7D34
:102E5000E0FE75F012A424ACF582E5F03401F583B0
:102E6000C083C082900B7EE0FDD082D08375F003DA
:102E7000127749EFF0900001E0FF75F012EEA42404
:102E8000ADF582E5F03401F58375F003ED12774975
:102E9000EFF0900AC6E0FF900B7DE0FE75F012A403
:102EA00024AEF582E5F03401F583C083C082900B37
:102EB0007EE0FDD082D08375F003127749EFF07584
:102EC000F012EEA42418F582E5F03400F58375F0D5
:102ED00003ED1277497420F0900B7AE004F0022D94
:102EE000D130380C90068FE0600314F022C23822F3
:102EF00090068FE004F0E0D3941450030230EC020B
:102F000030E7900ABDE0FF75F0F8A42400F582E5F3
:102F1000F034B8F583EF2583F583C083C082900534
:102F200069E0FFD082D08375F015127749C083C065
:102F300082900193E0FED082D08375F0031277492E
:102F4000E493900194F0900ABDE0FD75F0F8A4249C
:102F500001F582E5F034B8F583ED2583F58375F04E
:102F600015EF12774975F003EE127749E49390005C
:102F700001F0900ABDE0FF75F0F8A42402F582E5A7
:102F8000F034B8F583EF2583F583C083C0829005C4
:102F900069E0D082D08375F015127749C083C08272
:102FA000900193E0D082D08375F003127749E493C7
:102FB000900AC6F0129B23E4900B7AF0900B7AE013
:102FC000FFC3940640030230CC90068FE075F006F4
:102FD000A4FEEF2E900B7BF0E090B4FE93F4700310
:102FE0000230C390068FE0FF900B7AE0FE75F0157B
:102FF000A4247FF582E43417F583E5822FF582E47B
:103000003583F583E493FD900B7DF0EE75F015A408
:1030100024FDF582E43417F583E5822FF582E4354B
:1030200083F583E493FF900B7EF01201D7EF6003EA
:103030000230C3900194E0FF900B7DE0FE75F0122A
:10304000A424ACF582E5F03401F583C083C08290FE
:103050000B7EE0FDD082D08375F003127749EFF04C
:10306000900001E0FF75F012EEA424ADF582E5F0CA
:103070003401F58375F003ED127749EFF0900AC63D
:10308000E0FF900B7DE0FE75F012A424AEF582E522
:10309000F03401F583C083C082900B7EE0FDD082C6
:1030A000D08375F003127749EFF075F012EEA42487
:1030B00018F582E5F03400F58375F003ED127749D9
:1030C0007420F0900B7AE004F0022FBC30380C90A2
:1030D000068FE0600314F022C2382290068FE004CD
:1030E000F0E0D3941440057414F0D23822900BA26F
:1030F000E0900BAEF0900BB7F0539BF04397042297
:10310000000000000000000090035EE07008900BDB
:10311000B8E0FF12A9A2302E04D20B8002C20B200D
:103120001603300568900ABCE004F0900A9BE0FFAB
:10313000900ABCE0C39F4055E4F0900AB9E06004F7
:1031400014F08012301606C216D231D201300506B4
:10315000900AB97401F0900AB9E030E00D9001B521
:1031600074FFF0E4A3F0A3F08023E4900B6CF090E4
:103170000B6CE0FFC39403501474B52FF582E43454
:1031800001F583E4F0900B6CE004F080E2300B0B6F
:103190009001CD74FFF0E4A3F0A3F090035EE07023
:1031A0000302349D900683E0FF1313543FFEEF5457
:1031B0000314604C1470030232ED1470030233DB0D
:1031C0002403600302352230FD1030FF0DE490012E
:1031D000F1F0A374FFF0E4A3F022E4900B6CF09004
:1031E0000B6CE0FFC39403400302352274F12FF50A
:1031F00082E43401F583E4F0900B6CE004F080DFAE
:10320000304958900655E004F0E0C394235003027F
:1032100032E2E4F090034FE004F0E0FF30E00E9083
:1032200001F174FFF0E4A3F0A3F00232E2EFD394D3
:103230000A4002C249E4900B6CF0900B6CE0FFC3B3
:10324000940340030232E274F12FF582E43401F575
:1032500083E4F0900B6CE004F080DF900655E0040E
:10326000F0E0C3940A407BE4F090034FE004F0E008
:1032700030E04CEE14601B146025146031240370A0
:10328000619001F274FFF0E49001F1F09001F3F02D
:1032900080509001F374FFF0E49001F2F080099007
:1032A00001F274FFF0A3F0E49001F1F0803490019A
:1032B000F174FFF09001F3F0E49001F2F08023E468
:1032C000900B6CF0900B6CE0FFC39403501474F1FE
:1032D0002FF582E43401F583E4F0900B6CE004F008
:1032E00080E29003D67415F0A374E0F022304958C0
:1032F000900655E004F0E0C394235003023492E4B6
:10330000F090034FE004F0E0FF30E00E9001F17424
:10331000FFF0E4A3F0A3F0023492EFD3940A40024A
:10332000C249E4900B6CF0900B6CE0FFC394034037
:103330000302349274F12FF582E43401F583E4F052
:10334000900B6CE004F080DF900655E004F0E0C3E1
:1033500094195003023492E4F090034FE004F0E03B
:1033600030E052EE14601F146029146036240360AC
:10337000030234929001F274FFF0E49001F1F090B6
:1033800001F3F00234929001F374FFF0E49001F243
:10339000F080099001F274FFF0A3F0E49001F1F0E5
:1033A0000234929001F174FFF09001F3F0E4900187
:1033B000F2F0023492E4900B6CF0900B6CE0FFC3DF
:1033C0009403501474F12FF582E43401F583E4F092
:1033D000900B6CE004F080E202349230FD1F20FF7D
:1033E000028039EE14600F14600E14600D24036027
:1033F00003023492806D8079807E02348530495595
:10340000900655E004F0E0C394235003023492E4A4
:10341000F090034FE004F0E0FF30E00A9001F17417
:10342000FFF0E4A3805AEFD3940A4002C249E4902B
:10343000034FF0900B6CF0900B6CE0FFC3940350C3
:103440005174F12FF582E43401F583E4F0900B6CB4
:10345000E004F080E2EE14601814601C146026246E
:1034600003702FE49001F1F0A374FFF0E4A3F08067
:1034700021E49001F1F08014E49001F1F0A374FFD5
:10348000F0A3F0800D9001F174FFF0E4A3F0A374B9
:10349000FFF09003D6740AF0A374F0F022303F4C92
:1034A000900655E004F0E0C394234076E4F09003E6
:1034B0004FE004F0E0FF30E0089001F174FFF0808D
:1034C00038EFD3940A4002C23FE4900B6CF0900BAB
:1034D0006CE0FFC39403504A74F12FF582E4340189
:1034E000F583E4F0900B6CE004F080E230FD0F20F7
:1034F000FF0C9001F174FFF0E4A3F0A3F022E4903C
:103500000B6CF0900B6CE0FFC39403501574F12F1B
:10351000F582E43401F58374FFF0900B6CE004F065
:1035200080E122FF000000FF000000FFFFFF00FF1E
:1035300000FF00FFFFFFFFFFFF000000FF00000093
:10354000FFFFFF00FF00FF00FFFFFFFFFFFF000086
:1035500000FF000000FFFFFF00FF00FF00FFFFFF74
:10356000FFFFFF000000FF000000FFFFFF00FF0063
:10357000FF00FFFFFFFFFFFF000000FF000000FF54
:10358000FFFF00FF00FF00FFFFFFFFFFFF00000045
:10359000FF000000FFFFFF00FF00FF00FFFFFFFF35
:1035A000FFFF000000FF000000FFFFFF00FF00FF23
:1035B00000FFFFFFFFFFFF000000FF000000FFFF14
:1035C000FF00FF00FF00FFFFFFFFFFFF000000FF05
:1035D000000000FFFFFF00FF00FF00FFFFFFFFFFF5
:1035E000FF000000FF000000FFFFFF00FF00FF00E2
:1035F000FFFFFFFFFFFF000000FF000000FFFFFFD5
:1036000000FF00FF00FFFFFFFFFFFF000000FF00C3
:103610000000FFFFFF00FF00FF00FFFFFFFFFFFFB5
:10362000000000FF000000FFFFFF00FF00FF00FFA1
:10363000FFFFFFFFFF000000FF000000FFFFFF0093
:10364000FF00FF00FFFFFFFFFFFF000000FF000083
:1036500000FFFFFF00FF00FF00FFFFFFFFFFFF0075
:103660000000FF000000FFFFFF00FF00FF00FFFF62
:10367000FFFFFFFF000000FF000000FFFFFF00FF53
:1036800000FF00FFFFFFFFFFFF000000FF00000042
:10369000FFFFFF00FF00FF00FFFFFFFFFFFF000035
:1036A00000FF000000FFFFFF00FF00FF00FFFFFF23
:1036B000FFFFFF000000FF000000FFFFFF00FF0012
:1036C000FF00FFFFFFFFFFFF000000FF000000FF03
:1036D000FFFF00FF00FF00FFFFFFFFFFFF000000F4
:1036E000FF000000FFFFFF00FF00FF00FFFFFFFFE4
:1036F000FFFF000000FF000000FFFFFF00FF00FFD2
:1037000000FFFFFFFFFFFF000000FF000000FFFFC2
:10371000FF00FF00FF00FFFFFFFFFFFF000000FFB3
:10372000000000FFFFFF00FF00FF00FFFFFFFFFFA3
:10373000FF000000FF000000FFFFFF00FF00FF0090
:10374000FFFFFFFFFFFF000000FF000000FFFFFF83
:1037500000FF00FF00FFFFFFFFFFFF000000FF0072
:103760000000FFFFFF00FF00FF00FFFFFFFFFFFF64
:10377000000000FF000000FFFFFF00FF00FF00FF50
:10378000FFFFFFFFFF000000FF000000FFFFFF0042
:10379000FF00FF00FFFFFFFFFFFF000000FF000032
:1037A00000FFFFFF00FF00FF00FFFFFFFFFFFF0024
:1037B0000000FF000000FFFFFF00FF00FF00FFFF11
:1037C000FFFFFFFF000000FF000000FFFFFF00FF02
:1037D00000FF00FFFFFFFFFFFF000000FF000000F1
:1037E000FFFFFF00FF00FF00FFFFFFFFFFFF0000E4
:1037F00000FF000000FFFFFF00FF00FF00FFFFFFD2
:10380000FFFFFF000000FF000000FFFFFF00FF00C0
:10381000FF00FFFFFFFFFFFF000000FF000000FFB1
:10382000FFFF00FF00FF00FFFFFFFFFFFF000000A2
:10383000FF000000FFFFFF00FF00FF00FFFFFFFF92
:10384000FFFF000000FF000000FFFFFF00FF00FF80
:1038500000FFFFFFFFFFFF000000FF000000FFFF71
:10386000FF00FF00FF00FFFFFFFFFFFF000000FF62
:10387000000000FFFFFF00FF00FF00FFFFFFFFFF52
:10388000FF000000FF000000FFFFFF00FF00FF003F
:10389000FFFFFFFFFFFF000000FF000000FFFFFF32
:1038A00000FF00FF00FFFFFFFFFFFF000000FF0021
:1038B0000000FFFFFF00FF00FF00FFFFFFFFFFFF13
:1038C000000000FF000000FFFFFF00FF00FF00FFFF
:1038D000FFFFFFFFFF000000FF000000FFFFFF00F1
:1038E000FF00FF00FFFFFFFFFFFF000000FF0000E1
:1038F00000FFFFFF00FF00FF00FFFFFFFFFFFF00D3
:103900000000FF000000FFFFFF00FF00FF00FFFFBF
:10391000FFFFFF302203023C14900AB2E0B4130010
:103920004003023CEB90392CF828287302396502D9
:10393000397B0239A1023CEB0239AC023A3B023A34
:1039400051023A5E023A9D023AC1023AD8023AFA6C
:10395000023B1C023B42023B69023B90023BB1022C
:103960003BC7023BD6302D03023CEB303503023C13
:10397000EBE4900632F0A3F0D24422302D03023C57
:10398000EB303503023CEBB22EA22EE43390035F02
:10399000F0D21F12AB8CD2409006597451F002A99C
:1039A00014303503023CEBB22DD21F22302D03021E
:1039B0003CEB900192E0FFC39427502AEFC3942080
:1039C0004024203521D205D235D201900AC5EFF02E
:1039D000900192742DF0C241C240E4900659F090DB
:1039E0000A9B741EF022EFB42D16303513D247C255
:1039F00035C20512AB8CC241C240E4900659F02298
:103A000090035C7420F0E0900192F090035A7401EE
:103A1000F0C235C205C24712AB8C9006597451F002
:103A2000900AB5E090057EF0900AB3E090057FF033
:103A3000900AB2E0900580F0D21F22302D03023CA4
:103A4000EB303503023CEBD217E4900632F0A3F0E2
:103A500022302D03023CEB303503023CEB22302DAB
:103A600003023CEB303503023CEB90035B7401F046
:103A7000E0900192F09001937406F0E490035AF004
:103A8000900193E0FD900192E025E0FFE433FE74A5
:103A90006A2FF58274033EF583EDF0801A302D0312
:103AA000023CEB303503023CEB900364E004F0E0B1
:103AB000D394044002E4F012AB8C9006597451F098
:103AC00022302D03023CEB303503023CEBB20030D8
:103AD0000003023CEB023CE790035AE06003023C27
:103AE000EB900192E025E0FFE433FE746A2FF5824B
:103AF00074033EF583E0547FF02290035AE06003A4
:103B0000023CEB900192E025E0FFE433FE746A2F63
:103B1000F58274033EF583E04480F022302D0302E9
:103B20003CEB303503023CEBE4900632F0A3F0901E
:103B3000035EE064026003023CEBD24590035D0447
:103B4000F022302D03023CEB303503023CEBE490D5
:103B50000632F0A3F090035EE064026003023CEBE7
:103B6000D24590035D7402F022302D03023CEB300D
:103B70003503023CEBE4900632F0A3F090035EE0E4
:103B800064026003023CEBD24590035D7403F022B3
:103B9000302D03023CEB303503023CEBE49006325F
:103BA000F0A3F090035EE064016003023CEBD245B9
:103BB00022302D03023CEB303503023CEBE490064F
:103BC00032F0A3F0D21E22302D03023CEB3035033D
:103BD000023CEBB24322302D03023CEB30350302B2
:103BE0003CEB30FD03023CEBD23C7F01E4FE75F080
:103BF00012EFA424AFF582E5F03401F583E5822EBF
:103C0000F582E43583F583E4F00EEEB403E00FEFC4
:103C1000B40BD922900AB2E024FB602E24F9603460
:103C2000146056146072147003023CC114700302D5
:103C30003CCC24FE7003023CDC24126003023CEB0B
:103C4000E4900632F0A3F0C24422E4900632F0A3DE
:103C5000F0C21722302D03023CEB303503023CEB5F
:103C600090035EE0B4021020464B30454890035D5F
:103C7000E0FDE4FF12A96A803C202D6F20356C9096
:103C8000035EE0B4021020460D30450A90035DE06B
:103C9000FDE4FF12A96A801D202D5020354D9003B0
:103CA0005EE0B4021020460D30450A90035DE0FD51
:103CB000E4FF12A96AC246C24512AB8CC241D2408F
:103CC00022202D27203524C246C24522202D1C202B
:103CD0003519E4900632F0A3F0C21E22202D0C20EC
:103CE000350920FD06C23CD231D20122E4900B718D
:103CF000F0202209302C06302A0302400D900AB52C
:103D0000E024E070030240932420B4130040030237
:103D1000409C903D19F8282873023D52023D5B02F9
:103D20003D7A023D80023D89023D98023DAC023D54
:103D3000B5023DBE023DD2023DE6023DFD023E110E
:103D4000023EF1023FB9023FBC023FCB023FEF020D
:103D5000401930350302409C026DEA3035030240C1
:103D60009C204D0E7B017A0A79BD7D01128454029C
:103D70004099900AB27401F0800C127108023CFD67
:103D800030350302409C02A7A1302D0302409C3035
:103D9000350302409C02A7CA302D0302409C3035F7
:103DA0000302409C7B017A037959804C3035030231
:103DB000409C029FCA30350302409C02953F302D43
:103DC0000302409C30350302409C7B017A03795802
:103DD0008026302D0302409C30350302409C7B013D
:103DE0007A0379578012302D0302409C303503024C
:103DF000409C7B017A0379567D03028454302D0365
:103E000002409C30350302409C128C20C24AC20002
:103E100022302D0302409C30350302409CC20090AA
:103E2000035AE0900192600AE02487F582E43403AB
:103E3000800FE025E0FFE433FE746B2FF5827403FE
:103E40003EF583E0540F900AB8F0900192E0909014
:103E5000C493FF900B72F0900AB8E0D39F40089093
:103E60000B72E0900AB8F0D24A7A0A79B812844DFF
:103E7000900AB8E06003B40413D216900AB974062D
:103E8000F0E4900ABCF0900A9B740AF090035AE0A8
:103E90009001926026E02487F582E43403F583E004
:103EA00054F0FB900AB8E0FFEB4FFF900192E02442
:103EB00087F582E43403F583EFF022E025E0FFE4A8
:103EC00033FE746B2FF58274033EF583E054F0FBF0
:103ED000900AB8E0FFEB4FFFAD07900192E025E0BC
:103EE000FFE433FE746B2FF58274033EF583EDF02F
:103EF00022302D0302409C30350302409C900192F9
:103F0000E0FB6401700302409C90035AE0600302EE
:103F1000409CC200EB25E0FFE433FE746B2FF5827A
:103F200074033EF583E05470FFE4FCFDFE78041258
:103F30007725900ABBEFF0EB90909293FF900ABB2D
:103F4000E0D39F4002EFF07B017A0A79BB900192A7
:103F5000E090909293FD128454900192E025E0FF4E
:103F6000E433FE746B2FF58274033EF583E0548FC7
:103F7000FFE4AB07900ABBE075F010A4FFEB4FFF26
:103F8000AD07900192E025E0FFE433FE746B2FF55E
:103F90008274033EF583EDF0900ABBE06007640491
:103FA000600302409CD216900AB97406F0E4900AAD
:103FB000BCF0900A9B740AF022023913302D0302E0
:103FC000409C30350302409C02A94E302D03024034
:103FD0009C30260302409C900AB2E0FF900329E047
:103FE000B50708302A052022028022C2128027301D
:103FF0002D0302409C30260302409C900AB2E0FF51
:10400000900329E0B5070F302A0C202209C22AC2EA
:104010002CD22BD21F22029D70302D0302409C20F7
:10402000357A202277900192E0FF6403606EEF649E
:104030000F6069EF64106064EF6411605FE0FD255C
:10404000E0FFE433FE746A2FF58274033EF583E0EB
:10405000900193F0ED90903C93FF900B72F09001E3
:1040600093E0D39F4008900B72E0900193F0C24A16
:104070007A01799312844D900193E0FD900192E0D2
:1040800025E0FFE433FE746A2FF58274033EF58366
:10409000EDF022204B0612A52612A91422900BA2A5
:1040A000E0FD6401703F900BBC7457F0A37466F0A0
:1040B000900BB1E4F0A37412F0900BA6E0FE900B0D
:1040C000A5E0FBEBFF900BAFEEF0A3EFF0C3941273
:1040D000EE94005005900BAF8003900BB1E0FEA36F
:1040E000E0FF0243B8ED6402703F900BBC7457F0E0
:1040F000A37478F0900BB1E4F0A3743BF0900BA69E
:10410000E0FE900BA5E0FDEDFF900BAFEEF0A3EF0E
:10411000F0C3943BEE94005005900BAF8003900BDE
:10412000B1E0FEA3E0FF0243B8900BA2E0FD640300
:104130006003024294900BA1E0FC703F900BBC74B2
:1041400056F0A3743CF0900BB1E4F0A37404F0902B
:104150000BA6E0FE900BA5E0FBEBFF900BAFEEF0A3
:10416000A3EFF0C39404EE94005005900BAF8003CE
:10417000900BB1E0FEA3E0FF0243B8EC6401703F96
:10418000900BBC7456F0A37410F0900BB1E4F0A344
:104190007411F0900BA6E0FE900BA5E0FBEBFF90F6
:1041A0000BAFEEF0A3EFF0C39411EE940050059026
:1041B0000BAF8003900BB1E0FEA3E0FF0243B89089
:1041C0000BA1E0FC6402703F900BBC7457F0A37429
:1041D000C5F0900BB1E4F0A37420F0900BA6E0FEC4
:1041E000900BA5E0FBEBFF900BAFEEF0A3EFF0C35D
:1041F0009420EE94005005900BAF8003900BB1E03B
:10420000FEA3E0FF0243B8EC6403703F900BBC7464
:1042100056F0A37421F0900BB1E4F0A3740AF0906F
:104220000BA6E0FE900BA5E0FBEBFF900BAFEEF0D2
:10423000A3EFF0C3940AEE94005005900BAF8003F7
:10424000900BB1E0FEA3E0FF0243B8900BA1E0F4B5
:10425000703F900BBC7456F0A3742BF0900BB1E43C
:10426000F0A37411F0900BA6E0FE900BA5E0FBEB21
:10427000FF900BAFEEF0A3EFF0C39411EE9400505B
:1042800005900BAF8003900BB1E0FEA3E0FF02436B
:10429000B80243C4ED64226003024329900BA3E0FB
:1042A000FD703F900BBC7456F0A37440F0900BB1BE
:1042B000E4F0A37443F0900BA6E0FE900BA5E0FBA6
:1042C000EBFF900BAFEEF0A3EFF0C39443EE94003E
:1042D0005005900BAF8003900BB1E0FEA3E0FF020E
:1042E00043B8ED6401703F900BBC7456F0A3748327
:1042F000F0900BB1E4F0A374E3F0900BA6E0FE9015
:104300000BA5E0FDEDFF900BAFEEF0A3EFF0C39433
:10431000E3EE94005005900BAF8003900BB1E0FEEC
:10432000A3E0FF0243B80243C4900BA2E064216003
:10433000030243C4A3E0FD703E900BBC7457F0A38E
:1043400074B3F0900BB1E4F0A37409F0900BA6E005
:10435000FE900BA5E0FBEBFF900BAFEEF0A3EFF0B0
:10436000C39409EE94005005900BAF8003900BB1FD
:10437000E0FEA3E0FF8041ED64017046900BBC7449
:1043800057F0A374BCF0900BB1E4F0A37409F09063
:104390000BA6E0FE900BA5E0FDEDFF900BAFEEF05D
:1043A000A3EFF0C39409EE94005005900BAF800387
:1043B000900BB1E0FEA3E0FF900BB1EEF0A3EFF0A5
:1043C00080058000020056C25012996E5393FE433E
:1043D000970422E4900B89F0900B61E004F09001C7
:1043E00093E0FF64077003024490900ABDE0FE75FD
:1043F000F0F8A42400F582E5F034B8F583EE2583C7
:10440000F583C083C082900569E0FED082D08375B9
:10441000F01512774975F003EF127749E493900194
:1044200094F0900ABDE0FD75F0F8A42401F582E552
:10443000F034B8F583ED2583F58375F015EE12772A
:104440004975F003EF127749E493900001F0900A68
:10445000BDE0FF75F0F8A42402F582E5F034B8F56C
:1044600083EF2583F583C083C082900569E0D08205
:10447000D08375F015127749C083C082900193E014
:10448000D082D08375F003127749E493900AC6F086
:10449000E4900B85F0E4F5B112AC2AAB07AA0690C4
:1044A0000B61E02BFFE43AFE7C007D84127691AF35
:1044B00005900B88EDF0E0FF90177F93900B8AF04A
:1044C000C3941540030246CCE4F5B1EF9017FD9379
:1044D000900B8BF012AC2AAA06AB077C007DC012B1
:1044E0007691900B88EDF0900B8AE0FF75F012A4A6
:1044F0002418F582E5F03400F583C083C082900B68
:104500008BE0FED082D08375F003127749E0600320
:104510000246CC749D2FF582E4340AF583E0FD7CDD
:1045200000A80674017E00088005C333CE33CED8C0
:10453000F9FFEE5CFEEF5D4E60030246CC900B8A05
:10454000E0FD75F012A42418F582E5F03400F5833F
:10455000C083C082900B8BE0FFD082D08375F003C4
:10456000127749E4F07B0112A4E8900B8BE0FF90F6
:104570000B8AE0FD1201D7EF60030246CC90019355
:10458000E06407600302460C900B86F0900B86E017
:10459000FFC3940340030246CC900B88E075F00300
:1045A000A424BFF582E5F03413F583E5822FF5826C
:1045B000E43583F583E493FF900AB8E09011089303
:1045C000FEEF8EF0A4FFAEF07C007D1E127691907F
:1045D0000B86E0FE900B8AE075F012A424EFF582C2
:1045E000E5F03403F583C083C082900B8BE0D0826A
:1045F000D08375F003127749E5822EF582E4358386
:10460000F583EFF0900B86E004F08080900AB8E02C
:1046100090110893FF900194E08FF0A4FFAEF07C1E
:10462000007D1E127691900B8AE075F012A424EFA3
:10463000F582E5F03403F583C083C082900B8BE0F4
:10464000D082D08375F003127749EFF0900AB8E07A
:1046500090110893FF900001E08FF0A4FFAEF07C72
:10466000007D1E127691900B8AE075F012A424F062
:10467000F582E5F03403F583C083C082900B8BE0B4
:10468000D082D08375F003127749EFF0900AB8E03A
:1046900090110893FF900AC6E08FF0A4FFAEF07C63
:1046A000007D1E127691900B8AE075F012A424F121
:1046B000F582E5F03403F583C083C082900B8BE074
:1046C000D082D08375F003127749EFF0900B85E02C
:1046D00004F0E0C3940550030244952230580AC206
:1046E00058900B7B7406F08008D258900B7B7403B3
:1046F000F0E4900B79F0305808900B7A7403F08056
:1047000005E4900B7AF0900B7BE0FF900B7AE0FED3
:10471000C39F40030249C7900193E024F9500870F9
:1047200003024851024900900B79E075F012A4246D
:1047300018F582E5F03400F58375F003EE12774941
:10474000E0FD7F6012AA41900B79E0FE75F012A4A3
:104750002418F582E5F03400F583C083C082900B05
:104760007AE0FDD082D08375F003127749EFF075BF
:10477000F012EEA42418F582E5F03400F58375F00C
:1047800003ED127749E0900581F0900ABDE0FF75D6
:10479000F0F8A42400F582E5F034B8F583EF258322
:1047A000F583C083C082900569E0FFD082D0837515
:1047B000F015127749C083C082900193E0FED08249
:1047C000D08375F003127749E493900194F0900A36
:1047D000BDE0FD75F0F8A42401F582E5F034B8F5EC
:1047E00083ED2583F58375F015EF12774975F00396
:1047F000EE127749E493900001F0900ABDE0FF7556
:10480000F0F8A42402F582E5F034B8F583EF2583AF
:10481000F583C083C082900569E0D082D08375F0B3
:1048200015127749C083C082900193E0D082D08373
:1048300075F003127749E493900AC6F0900581E081
:104840009011E393FF7E007DFF7C00129B320249B2
:1048500000900B79E075F012A42418F582E5F0348D
:1048600000F583C083C082900B7AE0D082D083753C
:10487000F003127749E0FD7FC012AA41900B79E066
:10488000FE75F012A42418F582E5F03400F583C01B
:1048900083C082900B7AE0FDD082D08375F0031242
:1048A0007749EFF075F012EEA42418F582E5F034A4
:1048B00000F58375F003ED127749E0FF900581F074
:1048C000E0FE75F003A424BFF582E5F03413F58310
:1048D000E493900194F075F003EEA424C0F582E512
:1048E000F03413F583E493900001F075F003EFA426
:1048F00024C1F582E5F03413F583E493900AC6F001
:10490000129B23900B79E075F006A4FFA3E0FE2F25
:1049100090B4FE93F470030249BE900B79E0FFEE71
:1049200075F015A4247FF582E43417F583E5822F12
:10493000F582E43583F583E493FD900B7DF0EE750D
:10494000F015A424FDF582E43417F583E5822FF5F4
:1049500082E43583F583E493FEFF1201D7EF705EA6
:10496000900194E0FF900B7DE0FD75F012A424AC63
:10497000F582E5F03401F58375F003EE127749EF27
:10498000F0900001E0FF75F012EDA424ADF582E592
:10499000F03401F58375F003EE127749EFF0900AD9
:1049A000C6E0FF900B7DE075F012A424AEF582E521
:1049B000F03401F58375F003EE127749EFF0900BB8
:1049C0007AE004F0024706900B79E004F0E0C3942B
:1049D0001550030246F622202503024BA8C2255398
:1049E000A9FE90056DE075F080A4FFAEF0900B6D10
:1049F000EEF0A3EFF02400FFEE34DCFEC394DC40C5
:104A000015EE94DE5010900B6B74DCF0A3E4F02FE5
:104A1000FFEE3424806AC3EE94DE4015EE94E0503D
:104A200010900B6B74DEF0A3E4F02FFFEE342280C5
:104A30004FC3EE94E04015EE94E25010900B6B746F
:104A4000E0F0A3E4F02FFFEE34208034C3EE94E2D4
:104A50004015EE94E45010900B6B74E2F0A3E4F078
:104A60002FFFEE341E8019C3EE94E44024EE94E64A
:104A7000501F900B6B74E4F0A3E4F02FFFEE341C96
:104A8000900B6FF0A3EFF0900B6BE0C313900B73E0
:104A9000F0E4900B71F0A3F0900B71E0FEA3E0FF47
:104AA000900B6CE02FFD900B6BE03E8D82F583E464
:104AB00093FD74932FF58274063EF583EDF0900B11
:104AC00072E004F07006900B71E004F0900B71E05E
:104AD000B402C5A3E0B400C0E4900B71F0A3F09061
:104AE0000B71E0FEA3E0FFC39480EE9400503C7491
:104AF000B12FF58274053EF583E0FF900B71E0FC69
:104B0000A3E0FD900B70E02DFD900B6FE03CFC747A
:104B1000932DF58274063CF583EFF0900B72E00460
:104B2000F070BC900B71E004F080B4A2AF9255C25B
:104B3000AF900B73E0FF12A88B7B017A06799390FC
:104B40000B6BE0FCA3E0FD900B997402F0A3E4F082
:104B5000129B90A25592AFE4900B71F0A3F0900BD2
:104B600071E0FEA3E0FF900B6CE02FFD900B6BE07B
:104B70003E8D82F583E493FD74932FF58274063E97
:104B8000F583E0B505A5900B72E004F07006900B7C
:104B900071E004F0900B71E0B402C3A3E0B400BE76
:104BA000C20512AB8C43A901204703024CBBC2478C
:104BB00053A9FE900ABDE06003024CBB900AC5E019
:104BC000FDB4200B900B6D7401F0A3747A800AED94
:104BD000B4210EE4900B6DF0A3F0900B6B74BC80CD
:104BE00041900AC5E0FDB42211900B6D7401F0A351
:104BF000747AF0900B6B74BE8028EDB4230EE490B1
:104C00000B6DF0A3F0900B6B74BE8016900AC5E09C
:104C1000B4241D900B6D7401F0A3747AF0900B6BAB
:104C200074C2F0A3E4F0900B6BE0C313900B73F02D
:104C3000A2AF9255C2AF900B73E0FF12A88B900BFE
:104C400073E004FF12A88B7B017A067993900B6BBB
:104C5000E0FCA3E0FD900B997404F0A3E4F0129B38
:104C600090A25592AFE4900B71F0A3F0900B71E01D
:104C7000FEA3E0FF900B6CE02FFD900B6BE03E8DF0
:104C800082F583E493FD74932FF58274063EF583D9
:104C9000E0B5059C900B72E004F07006900B71E09B
:104CA00004F0900B71E0B404C3A3E0B400BE43A9C8
:104CB00001C205900AC5E0900192F022900B7F742A
:104CC00001F0305808C258A37406F08008D25890FA
:104CD0000B807403F0E4900B7DF0305808900B7E4D
:104CE0007403F08005E4900B7EF0900B80E0FF9061
:104CF0000B7EE0FEC39F4003024F56A3E0FFA806D1
:104D0000088002C333D8FCFF900B7DE0249DF58220
:104D1000E4340AF583E05F6003024F4D900B7DE0C1
:104D2000FF75F012A424AEF582E5F03401F583C0DE
:104D300083C082900B7EE0FED082D08375F0031298
:104D40007749E0900AE1F075F012EFA424ADF58206
:104D5000E5F03401F58375F003EE127749E0900A2F
:104D6000DFF0900B7DE0FF75F012A424ACF582E536
:104D7000F03401F583C083C082900B7EE0FED082C8
:104D8000D08375F003127749E0900ADEF075F012D7
:104D9000EFA42418F582E5F03400F58375F003EEF6
:104DA000127749E0FD900AE1E08DF0A4AEF07805BD
:104DB000CEC313CE13D8F9900AE1F0900ADFE08D4C
:104DC000F0A4AEF07805CEC313CE13D8F9900ADF65
:104DD000F0900B7DE075F012A42418F582E5F03414
:104DE00000F583C083C082900B7EE0FDD082D0832B
:104DF00075F003127749E0FF900ADEE08FF0A4AE71
:104E0000F07805CEC313CE13D8F9900ADEF0AF05C3
:104E1000900B7DE0FD1201D7EF7075900AE1E0FF85
:104E2000900B7DE0FE75F012A424AEF582E5F0341F
:104E300001F583C083C082900B7EE0FDD082D083D9
:104E400075F003127749EFF0900ADFE0FF75F0127A
:104E5000EEA424ADF582E5F03401F58375F003EDA1
:104E6000127749EFF0900ADEE0FF900B7DE075F0DD
:104E700012A424ACF582E5F03401F583C083C0822E
:104E8000900B7EE0D082D08375F003127749EFF06B
:104E9000900569E0640D7070900B7DE0FF75F01275
:104EA000A42418F582E5F03400F583C083C0829015
:104EB0000B7EE0FED082D08375F003127749E0D3F9
:104EC0009401401C75F012EFA42418F582E5F0342B
:104ED00000F58375F003EE127749E024FEF0806D53
:104EE000900B7DE075F012A42418F582E5F03400F3
:104EF000F583C083C082900B7EE0D082D08375F0B2
:104F000003127749E4F08045900B7DE0FF75F012C5
:104F1000A42418F582E5F03400F583C083C08290A4
:104F20000B7EE0FED082D08375F003127749E0D388
:104F30009400401975F012EFA42418F582E5F034BE
:104F400000F58375F003EE127749E014F0900B7EC4
:104F5000E004F0024CEA900B7DE004F0E0C394150D
:104F60005003024CDA22E4900B79F0E4900B7AF0D3
:104F7000900B7AE0FFC3940640030250E1900B7956
:104F8000E075F012A42418F582E5F03400F583757D
:104F9000F003EF127749E0FD7F8012AA41900B7970
:104FA000E0FE75F012A42418F582E5F03400F583D4
:104FB000C083C082900B7AE0FDD082D08375F0036D
:104FC000127749EFF075F012EEA42418F582E5F09F
:104FD0003400F58375F003ED127749E0FF90058109
:104FE000F075F003A424FFF582E5F03415F583E4B1
:104FF00093900194F075F003EFA42400F582E5F09E
:105000003416F583E493900001F0900581E075F08B
:1050100003A42401F582E5F03416129B1B900B7952
:10502000E075F006A4FFA3E0FE2F90B57C93F4702A
:10503000030250D8900B79E0FFEE75F015A4247FA1
:10504000F582E43417F583E5822FF582E43583F5A4
:1050500083E493FD900B7CF0EE75F015A424FDF530
:1050600082E43417F583E5822FF582E43583F583F6
:10507000E493FEFF1201D7EF705E900194E0FF9081
:105080000B7CE0FD75F012A424ACF582E5F0340150
:10509000F58375F003EE127749EFF0900001E0FF21
:1050A00075F012EDA424ADF582E5F03401F58375B9
:1050B000F003EE127749EFF0900AC6E0FF900B7C08
:1050C000E075F012A424AEF582E5F03401F58375A5
:1050D000F003EE127749EFF0900B7AE004F0024F04
:1050E00070900B79E004F0E0C394155003024F6B0D
:1050F000225392BF439701439708E4900BB9F022E3
:105100000000000000000000900B877401F0305890
:1051100008C258A37406F08008D258900B88740314
:10512000F0E4900B85F0305808900B867403F08003
:1051300005E4900B86F0900B88E0FF900B86E0C3AF
:105140009F40030253A1900B85E0FF75F012A42449
:10515000F1F582E5F03403F583C083C082900B86BD
:10516000E0FED082D08375F003127749E0900AE127
:10517000F075F012EFA424F0F582E5F03403F58326
:1051800075F003EE127749E0900ADFF0900B85E0AE
:10519000FF75F012A424EFF582E5F03403F583C027
:1051A00083C082900B86E0FED082D08375F003121C
:1051B0007749E0900ADEF075F012EFA42418F5822A
:1051C000E5F03400F58375F003EE127749E0FD90C9
:1051D0000AE1E08DF0A4AEF07805CEC313CE13D86B
:1051E000F9900AE1F0900ADFE08DF0A4AEF07805C6
:1051F000CEC313CE13D8F9900ADFF0900B85E0757B
:10520000F012A42418F582E5F03400F583C083C0C1
:1052100082900B86E0FDD082D08375F0031277492F
:10522000E0FF900ADEE08FF0A4AEF07805CEC31365
:10523000CE13D8F9900ADEF0AF05900B85E0FD1291
:1052400001D7EF7075900AE1E0FF900B85E0FE75E5
:10525000F012A424AEF582E5F03401F583C083C0DA
:1052600082900B86E0FDD082D08375F003127749DF
:10527000EFF0900ADFE0FF75F012EEA424ADF582A6
:10528000E5F03401F58375F003ED127749EFF09006
:105290000ADEE0FF900B85E075F012A424ACF582E5
:1052A000E5F03401F583C083C082900B86E0D082A4
:1052B000D08375F003127749EFF0900B86E0FFA3DF
:1052C000E0FEA807088002C333D8FCFE900B85E0FF
:1052D000249DF582E4340AF583E05E6076900B85C8
:1052E000E0FD75F012A42418F582E5F03400F58392
:1052F000C083C082900B86E0FCD082D08375F0031F
:10530000127749E004F075F012EDA42418F582E557
:10531000F03400F58375F003EC127749E0D3942064
:105320004076900B85E0FD75F012A42418F582E517
:10533000F03400F58375F003EF1277497420F074B0
:105340009D2DF582E4340AF583E0FFEEF4FEEF5E76
:10535000F08045900B85E0FF75F012A42418F582CB
:10536000E5F03400F583C083C082900B86E0FED068
:1053700082D08375F003127749E0D3940040197509
:10538000F012EFA42418F582E5F03400F58375F0EF
:1053900003EE127749E014F0900B86E004F002511E
:1053A00036900B85E004F0E0C394155003025126BB
:1053B00022900B79EFF0E4900B7FF0C20390056927
:1053C000E06401600A7FC012A38C900B7FEFF0E4D1
:1053D000900B7AF0900B79E0FFA3E0C39F400302AB
:1053E000560F900193E0FF64077049900B7FE0FE39
:1053F00075F003A424BFF582E5F03413F583E4933C
:10540000900194F075F003EEA424C0F582E5F03429
:1054100013F583E493900001F0900B7FE075F003A7
:10542000A424C1F582E5F03413F583E493900AC611
:10543000F00254DA900ABDE0FE75F0F8A42400F5FD
:1054400082E5F034B8F583EE2583F583C083C0820E
:10545000900569E0FED082D08375F015127749750A
:10546000F003EF127749E493900194F0900ABDE0C5
:10547000FD75F0F8A42401F582E5F034B8F583ED6C
:105480002583F58375F015EE12774975F003EF1259
:105490007749E493900001F0900ABDE0FF75F0F8C1
:1054A000A42402F582E5F034B8F583EF2583F58373
:1054B000C083C082900569E0D082D08375F0151258
:1054C0007749C083C082900193E0D082D08375F089
:1054D00003127749E493900AC6F0129B23900B7F46
:1054E000E0240DF0E0C394C04004E02440F0E4FC6C
:1054F000900B7AE0FF75F00AA4242AF582E43411B7
:10550000F583E5822CF582E43583F583E493F4702A
:10551000030255FDEF75F00AA4242AF582E4341144
:10552000F583E5822CF582E43583F583E493FE541C
:1055300007900B7EF0EE131313541F900B7DF0E0D9
:10554000FFA3E0FE75F015A4247FF582E43417F57F
:1055500083E5822FF582E43583F583E493900B7D18
:10556000F0E0FDEE75F015A424FDF582E43417F5A6
:1055700083E5822DF582E43583F583E493FF900B78
:105580007EF01201D7EF7075900194E0FF900B7DD3
:10559000E0FE75F012A424ACF582E5F03401F58349
:1055A000C083C082900B7EE0FDD082D08375F00373
:1055B000127749EFF0900001E0FF75F012EEA4249D
:1055C000ADF582E5F03401F58375F003ED1277490E
:1055D000EFF0900AC6E0FF900B7DE075F012A42476
:1055E000AEF582E5F03401F583C083C082900B7E76
:1055F000E0D082D08375F003127749EFF00CEC64B1
:105600000A60030254F0900B7AE004F00253D422B3
:105610001003420059002000540065006300680038
:10562000000A0330003000300031001003420059FE
:1056300000200054006500630068000004030904B2
:1056400005010906A101050719E029E71500250153
:105650009508750181029501750881039506750805
:10566000150026FF00050719002AFF00810025010B
:105670009505750105081901290591029501750324
:105680009103C00601000980A101850119812983C8
:1056900015002501950375018102950175058101AC
:1056A000C0050C0901A101850219002AFF0215009D
:1056B00026FF7F950175108100C00600FF0901A13A
:1056C000018503150026FF00092F75089503810247
:1056D000C005010906A101850405071904297015F3
:1056E000002501750195788102C00600FF0901A11E
:1056F000018505150026FF00190129027508950589
:10570000B102C00600FF0901A1018506150026FFB0
:1057100000190129027508960704B102C0050109A4
:1057200002A10185070901A100050915002501193C
:105730000129057501950581029503810105011671
:10574000008026FF7F09300931751095028106150A
:1057500081257F0938750895018106050C0A3802F4
:1057600095018106C0C012010002000000088A25D0
:10577000490001010102000109023B00020100A0F1
:10578000FA090400000103010100092111010001CF
:1057900022430007058103080001090401000103F9
:1057A00000000009211101000122E3000705820326
:1057B00010000109211101000122430009211101FA
:1057C000000122E3002003470061006D0069006EC4
:1057D00000670020004B006500790062006F0061E7
:1057E000007200640002000000001E0302041008A2
:1057F000FF0056FFAB68FFA61EFFAB7AFFA6BAFFFD
:10580000ABE2FFA74DFF10D0FF003EFFA12BFFA290
:105810006AFF9687FF409DFFA777FFA842FF2523D9
:10582000FF8F77FF30EDFFA81CFFA867FFA41700CC
:10583000010102010200030302030400050500093F
:1058400006010B0700070880000980060C81060C82
:1058500080080D81000A82000B810A0EA1010F2130
:105860000910210A11A10212210B13A10314FFE058
:10587000FD900B80EFF0A3EDF01201D7EF60030273
:105880005AC7900193E024F9500870030259890225
:105890005AA1900ABDE0FF75F0F8A42400F582E556
:1058A000F034B8F583EF2583F583C083C08290057B
:1058B00069E0FFD082D08375F015127749C083C0AC
:1058C00082900193E0FED082D08375F00312774975
:1058D000E493900194F0900ABDE0FD75F0F8A424E3
:1058E00001F582E5F034B8F583ED2583F58375F095
:1058F00015EF12774975F003EE127749E4939000A3
:1059000001F0900ABDE0FF75F0F8A42402F582E5ED
:10591000F034B8F583EF2583F583C083C08290050A
:1059200069E0D082D08375F015127749C083C082B8
:10593000900193E0D082D08375F003127749E4930D
:10594000900AC6F0900AB8E0FB90110893FA900113
:1059500094E08AF0A4FFAEF07C007D1E1276919058
:105960000B82EFF0900001E08AF0A4FFAEF07C0023
:105970007D1E127691900B83EFF0EB90110893FF50
:10598000900AC6E08FF0025A2112AC2A7C007DC03A
:10599000127691AA04AB059013BF75F003EB127752
:1059A00049EA75F003A42583F583E493FF900AB8D0
:1059B000E090110893FEEF8EF0A4FFAEF07C007D26
:1059C0001E127691900B82EFF09013C075F003EBEE
:1059D000127749EA75F003A42583F583E493FF90D9
:1059E0000AB8E090110893FEEF8EF0A4FFAEF07CB1
:1059F000007D1E127691900B83EFF0AE02AF039004
:105A000013C175F003EF127749EE75F003A42583F7
:105A1000F583E493FF900AB8E090110893FEEF8EAF
:105A2000F0A4FFAEF07C007D1E127691900B84EF07
:105A3000F0900B82E0FE900B81E0FD75F012A42443
:105A4000EFF582E5F03403F583C083C082900B80CC
:105A5000E0FCD082D08375F003127749EEF0900B12
:105A600083E0FE75F012EDA424F0F582E5F0340336
:105A7000F58375F003EC127749EEF0900B81E07539
:105A8000F012A424F1F582E5F03403F583C083C05D
:105A900082900B80E0D082D08375F003127749EFBB
:105AA000F0900B81E075F012A42418F582E5F03433
:105AB00000F583C083C082900B80E0D082D08375D4
:105AC000F003127749E4F022900B7F7401F0E49028
:105AD0000B7AF0900B7AE0FFC394154003025BBD94
